:100000000C942A000C943C000C943C000C943C0092
:100010000C943C000C943C000C943C000C943C0070
:100020000C943C000C943C000C943C000C943C0060
:100030000C943C000C943C000C943C000C943C0050
:100040000C942B010C943C000C943C000C943C0050
:100050000C943C0011241FBECFE5D8E0DEBFCDBF1D
:1000600010E0A0E6B0E001C01D92A536B107E1F7AF
:100070000E94D3060C94E1060C940000DF93CF930A
:10008000CDB7DEB7A7E2B0E0E7E2F0E080818064C0
:100090008C93A7E2B0E0E7E2F0E080818F778C9369
:1000A000A7E2B0E0E7E2F0E080818F7D8C93A6E2EA
:1000B000B0E0E6E2F0E08081887F8C93A6E2B0E0D9
:1000C000E6E2F0E0808187608C93A6E2B0E0E6E2B1
:1000D000F0E0808180688C93CF91DF910895DF9369
:1000E000CF9300D000D000D0CDB7DEB78C837E8315
:1000F0006D8381E08B831A8219828091640088234A
:1001000009F050C08C81803208F04CC08D819E81F6
:10011000009709F447C081E080936400A7E2B0E053
:10012000E7E2F0E08081807E8C93A7E2B0E0E7E236
:10013000F0E090818C81892B8C93A6E2B0E0E6E21E
:10014000F0E0808180648C93E6E2F0E0808182952B
:100150008F70882F90E081709070009731F48981C2
:100160009A8101969A838983EFCFE6E2F0E080815D
:1001700082958F70882F90E081709070882381F035
:10018000A6E2B0E0E6E2F0E0808180618C93E4E2F8
:10019000F0E080819181ED81FE819183808303C0B5
:1001A0001B8201C01B828B8126960FB6F894DEBF9E
:1001B0000FBECDBFCF91DF910895DF93CF9300D0D5
:1001C00000D000D0CDB7DEB78A837C836B835E839B
:1001D0004D8381E089838A818F3190F58B819C8169
:1001E000009771F18D819E81009751F18B819C81E7
:1001F00090936100809360008D819E819093630055
:1002000080936200A7E2B0E0E7E2F0E08081807EC8
:100210008C93A7E2B0E0E7E2F0E090818A81892B3D
:100220008C93A6E2B0E0E6E2F0E0808188608C93F7
:10023000A6E2B0E0E6E2F0E0808180648C9301C049
:100240001982898126960FB6F894DEBF0FBECDBF06
:10025000CF91DF9108951F920F920FB60F92112444
:100260002F933F934F935F936F937F938F939F93BE
:10027000AF93BF93EF93FF93DF93CF93CDB7DEB7E9
:1002800080916000909161000097F1F08091620090
:10029000909163000097C1F010926400A0916000FB
:1002A000B0916100E4E2F0E0808191818D939C93B4
:1002B000E0916200F09163000995A6E2B0E0E6E209
:1002C000F0E08081877F8C93CF91DF91FF91EF9158
:1002D000BF91AF919F918F917F916F915F914F915E
:1002E0003F912F910F900FBE0F901F901895DF93A5
:1002F000CF93CDB7DEB7EAE3F0E01082E7E3F0E0BA
:100300008FEF8083E4E3F0E08FEF8083E1E3F0E0C0
:100310001082EBE3F0E01082E8E3F0E01082E5E326
:10032000F0E01082E2E3F0E084E08083CF91DF919F
:100330000895DF93CF93CDB7DEB72E970FB6F8941D
:10034000DEBF0FBECDBF8A836B834C8381E0898380
:100350008B81883008F068C18A81282F30E03E8781
:100360002D878D859E858130910509F468C02D8586
:100370003E85223031052CF48D859E85009771F0E5
:1003800051C12D853E852230310509F4A9C08D85E6
:100390009E858330910509F4F4C044C18C81282FD7
:1003A00030E03C872B878B859C858130910589F1D6
:1003B0002B853C852230310529F08B859C85009763
:1003C00099F03BC0ABE3B0E0EBE3F0E08081482F75
:1003D0008B81282F30E081E090E002C0880F991FC8
:1003E0002A95E2F7842B8C93AAE3B0E0EAE3F0E0ED
:1003F0008081482F8B81282F30E081E090E0022E11
:1004000002C0880F991F0A94E2F7809584238C9389
:100410000CC1AAE3B0E0EAE3F0E08081482F8B81D1
:10042000282F30E081E090E0022E02C0880F991F53
:100430000A94E2F7842B8C93F8C01982F6C08C8161
:10044000282F30E03A87298789859A858130910560
:1004500089F129853A852230310529F089859A85E7
:10046000009799F03BC0A8E3B0E0E8E3F0E08081BA
:10047000482F8B81282F30E081E090E002C0880F68
:10048000991F2A95E2F7842B8C93A7E3B0E0E7E36A
:10049000F0E08081482F8B81282F30E081E090E0D0
:1004A000022E02C0880F991F0A94E2F780958423D8
:1004B0008C93BBC0A7E3B0E0E7E3F0E08081482F76
:1004C0008B81282F30E081E090E0022E02C0880F5F
:1004D000991F0A94E2F7842B8C93A7C01982A5C0B8
:1004E0008C81282F30E038872F838F819885813049
:1004F000910589F12F8138852230310529F08F81CE
:100500009885009799F03BC0A5E3B0E0E5E3F0E003
:100510008081482F8B81282F30E081E090E002C05D
:10052000880F991F2A95E2F7842B8C93A4E3B0E0FF
:10053000E4E3F0E08081482F8B81282F30E081E0D8
:1005400090E0022E02C0880F991F0A94E2F780956E
:1005500084238C936AC0A4E3B0E0E4E3F0E08081FC
:10056000482F8B81282F30E081E090E0022E02C0DE
:10057000880F991F0A94E2F7842B8C9356C0198236
:1005800054C08C81282F30E03E832D838D819E8145
:100590008130910589F12D813E812230310529F08C
:1005A0008D819E81009799F03BC0A2E3B0E0E2E329
:1005B000F0E08081482F8B81282F30E081E090E0AF
:1005C00002C0880F991F2A95E2F7842B8C93A1E330
:1005D000B0E0E1E3F0E08081482F8B81282F30E00C
:1005E00081E090E0022E02C0880F991F0A94E2F782
:1005F000809584238C9319C0A1E3B0E0E1E3F0E09F
:100600008081482F8B81282F30E081E090E0022EFE
:1006100002C0880F991F0A94E2F7842B8C9305C0BF
:10062000198203C0198201C0198289812E960FB6E2
:10063000F894DEBF0FBECDBFCF91DF910895DF9359
:10064000CF93CDB7DEB72D970FB6F894DEBF0FBEB0
:10065000CDBF8A836B8381E089838A81282F30E034
:100660003D872C878C859D8581309105D1F12C8526
:100670003D85223031052CF48C859D85009771F0E5
:1006800099C02C853D852230310509F44DC08C85FB
:100690009D858330910509F46AC08CC08B81282F19
:1006A00030E03B872A878A859B858130910591F0D0
:1006B0002A853B852230310529F08A859B85009764
:1006C00029F00DC0EBE3F0E08FEF8083EAE3F0E088
:1006D000108271C0EAE3F0E08FEF80836CC0198272
:1006E0006AC08B81282F30E03987288788859985D3
:1006F0008130910591F0288539852230310529F026
:1007000088859985009729F00DC0E8E3F0E08FEF28
:100710008083E7E3F0E010824EC0E7E3F0E08FEF84
:10072000808349C0198247C08B81282F30E03F83E6
:100730002E838E819F818130910591F02E813F81A2
:100740002230310529F08E819F81009729F00DC05C
:10075000E5E3F0E08FEF8083E4E3F0E010822BC06C
:10076000E4E3F0E08FEF808326C0198224C08B8100
:10077000282F30E03D832C838C819D818130910531
:1007800091F02C813D812230310529F08C819D81B1
:10079000009729F00DC0E2E3F0E08FEF8083E1E302
:1007A000F0E0108208C0E1E3F0E08FEF808303C047
:1007B000198201C0198289812D960FB6F894DEBF87
:1007C0000FBECDBFCF91DF910895DF93CF93CDB70B
:1007D000DEB72E970FB6F894DEBF0FBECDBF8A836B
:1007E0006B834C8381E089838B81883008F00AC158
:1007F0008C81813021F08C81882309F003C18A81AA
:10080000282F30E03E872D878D859E85813091058C
:1008100009F44FC02D853E85223031052CF48D859D
:100820009E85009771F0ECC02D853E852230310504
:1008300009F477C08D859E858330910509F4A9C0A0
:10084000DFC08C81282F30E03C872B878B859C85EF
:100850000097D1F02B853C852130310509F0D3C0BC
:10086000ABE3B0E0EBE3F0E08081482F8B81282FF1
:1008700030E081E090E0022E02C0880F991F0A94B8
:10088000E2F7842B8C93BFC0ABE3B0E0EBE3F0E086
:100890008081482F8B81282F30E081E090E0022E6C
:1008A00002C0880F991F0A94E2F7809584238C93E5
:1008B000AAC08C81282F30E03A87298789859A85BC
:1008C0000097D1F029853A852130310509F09BC088
:1008D000A8E3B0E0E8E3F0E08081482F8B81282F87
:1008E00030E081E090E0022E02C0880F991F0A9448
:1008F000E2F7842B8C9387C0A8E3B0E0E8E3F0E054
:100900008081482F8B81282F30E081E090E0022EFB
:1009100002C0880F991F0A94E2F7809584238C9374
:1009200072C08C81282F30E038872F838F81988583
:100930000097D1F02F8138852130310509F063C04F
:10094000A5E3B0E0E5E3F0E08081482F8B81282F1C
:1009500030E081E090E0022E02C0880F991F0A94D7
:10096000E2F7842B8C934FC0A5E3B0E0E5E3F0E021
:100970008081482F8B81282F30E081E090E0022E8B
:1009800002C0880F991F0A94E2F7809584238C9304
:100990003AC08C81282F30E03E832D838D819E814B
:1009A0000097C9F02D813E812130310561F5A2E328
:1009B000B0E0E2E3F0E08081482F8B81282F30E027
:1009C00081E090E0022E02C0880F991F0A94E2F79E
:1009D000842B8C9318C0A2E3B0E0E2E3F0E08081C6
:1009E000482F8B81282F30E081E090E0022E02C05A
:1009F000880F991F0A94E2F7809584238C9303C093
:100A0000198201C0198289812E960FB6F894DEBF33
:100A10000FBECDBFCF91DF910895DF93CF93CDB7B8
:100A2000DEB727970FB6F894DEBF0FBECDBF8A831F
:100A30006B835D834C8381E089838B81883008F0F0
:100A40007AC08C819D81009709F475C081E089830B
:100A50008A81282F30E03F832E834E815F81413091
:100A6000510559F18E819F818230910534F42E8198
:100A70003F812115310569F05CC04E815F814230B4
:100A8000510579F18E819F818330910509F43DC034
:100A900050C0E9E3F0E08081282F30E08B81882F7F
:100AA00090E0A90102C0559547958A95E2F7CA01E1
:100AB0008170EC81FD81808340C0E6E3F0E08081BD
:100AC000282F30E08B81882F90E0A90102C0559536
:100AD00047958A95E2F7CA018170EC81FD81808398
:100AE0002CC0E3E3F0E08081282F30E08B81882F59
:100AF00090E0A90102C0559547958A95E2F7CA0191
:100B00008170EC81FD81808318C0E0E3F0E080819A
:100B1000282F30E08B81882F90E0A90102C05595E5
:100B200047958A95E2F7CA018170EC81FD81808347
:100B300004C0198202C081E08983898127960FB69B
:100B4000F894DEBF0FBECDBFCF91DF910895DF9344
:100B5000CF9300D000D000D0CDB7DEB78A836B83AF
:100B600081E089838B81883008F070C08A81282FCA
:100B700030E03D832C838C819D818130910549F14A
:100B80002C813D81223031052CF48C819D81009790
:100B900061F05BC02C813D812230310571F18C8187
:100BA0009D8183309105E9F150C0ABE3B0E0EBE308
:100BB000F0E08081482F8B81282F30E081E090E0A9
:100BC000022E02C0880F991F0A94E2F784278C93A3
:100BD0003DC0A8E3B0E0E8E3F0E08081482F8B81DE
:100BE000282F30E081E090E0022E02C0880F991F8C
:100BF0000A94E2F784278C9329C0A5E3B0E0E5E3EB
:100C0000F0E08081482F8B81282F30E081E090E058
:100C1000022E02C0880F991F0A94E2F784278C9352
:100C200015C0A2E3B0E0E2E3F0E08081482F8B81C1
:100C3000282F30E081E090E0022E02C0880F991F3B
:100C40000A94E2F784278C9301C0198226960FB686
:100C5000F894DEBF0FBECDBFCF91DF910895DF9333
:100C6000CF9300D000D00F92CDB7DEB78A836B83CD
:100C700081E089838A81282F30E03D832C838C8119
:100C80009D8181309105D1F02C813D81223031054B
:100C90002CF48C819D81009761F01FC02C813D81D7
:100CA0002230310581F08C819D818330910581F066
:100CB00014C0EBE3F0E08B81808310C0E8E3F0E048
:100CC0008B8180830BC0E5E3F0E08B81808306C0DD
:100CD000E2E3F0E08B81808301C0198289810F906B
:100CE0000F900F900F900F90CF91DF910895DF93A9
:100CF000CF9300D000D000D0CDB7DEB78A837C83FD
:100D00006B8381E089838B819C81009709F43FC0CC
:100D100081E089838A81282F30E03E832D838D8175
:100D20009E8181309105E1F02D813E812230310597
:100D30002CF48D819E81009761F027C02D813E812A
:100D400022303105A1F08D819E8183309105B1F073
:100D50001CC0E9E3F0E08081EB81FC81808319C055
:100D6000E6E3F0E08081EB81FC81808312C0E3E365
:100D7000F0E08081EB81FC8180830BC0E0E3F0E058
:100D80008081EB81FC81808304C0198202C081E0F4
:100D90008983898126960FB6F894DEBF0FBECDBF3A
:100DA000CF91DF910895DF93CF930F92CDB7DEB748
:100DB0000E9477010E943E0081E069810E942F0617
:060DC000FBCFF894FFCF09
:00000001FF
