:100000000C942A000C943F000C943F000C943F0089
:100010000C943F000C943F000C943F000C943F0064
:100020000C943F000C943F000C943F000C943F0054
:100030000C943F000C943F000C943F000C943F0044
:100040000C943F000C943F000C943F000C943F0034
:100050000C943F0011241FBECFE5D8E0DEBFCDBF1A
:1000600010E0A0E6B0E0E0E6F8E102C005900D92F5
:10007000A836B107D9F70E94F70A0C942E0C0C94FD
:100080000000EF92FF920F931F937B018C0120E001
:1000900030E040E05FE40E94410388238CF0C80117
:1000A000B70120E030E040E05FE40E94B9010E9427
:1000B000A1039B01AC01205030404040504806C095
:1000C000C801B7010E94A1039B01AC01B901CA019B
:1000D0001F910F91FF90EF900895A0E0B0E0E3E74B
:1000E000F0E00C94F70BDC012B01FA019C919230AB
:1000F00008F439C1EB018881823008F433C19430AF
:1001000069F4843009F02FC111969C91119789816F
:10011000981709F428C1A0E6B0E025C1843009F49D
:1001200021C18230A9F4923009F01DC19A01AD01BC
:1001300088E0EA010990AE01E90109929E0181502F
:10014000C1F7E201898111969C918923818308C1BD
:10015000923009F407C112962D903C901397EB0151
:100160008A819B811496AD90BD90CD90DC901797BD
:10017000EC80FD800E811F819101281B390BB90194
:1001800037FF04C066277727621B730B6032710547
:100190000CF061C0121613066CF537014801062EEB
:1001A00004C096948794779467940A94D2F721E0D8
:1001B00030E040E050E004C0220F331F441F551FC1
:1001C0006A95D2F721503040404050402E213F21C7
:1001D00040235123211531054105510521F021E02E
:1001E00030E040E050E079018A01E628F72808294C
:1001F00019293CC0232BD1F1260E371E35014601AB
:10020000062E04C096948794779467940A94D2F744
:1002100021E030E040E050E004C0220F331F441FD3
:10022000551F6A95D2F721503040404050402A2156
:100230003B214C215D21211531054105510521F05E
:1002400021E030E040E050E059016A01A628B728DB
:10025000C828D9280BC0821593052CF01C01AA24AC
:10026000BB24650103C0EE24FF24870111969C91F5
:10027000D20111968C91981709F445C0992339F051
:10028000A80197012A193B094C095D0906C0A6017E
:1002900095012E193F09400B510B57FD08C01182E3
:1002A0003382228224833583468357831DC081E0B5
:1002B00081833382228288279927DC01821B930B5A
:1002C000A40BB50B84839583A683B7830DC0220F3F
:1002D000331F441F551F24833583468357838281F0
:1002E000938101979383828324813581468157814D
:1002F000DA01C9010197A109B1098F5F9F4FAF4F83
:10030000BF4328F30BC0918333822282EA0CFB1C8B
:100310000C1D1D1DE482F5820683178383E0808314
:10032000248135814681578157FF1AC0C901AA2708
:1003300097FDA095BA2F81709070A070B0705695FF
:10034000479537952795822B932BA42BB52B848328
:100350009583A683B7838281938101969383828359
:10036000DF0101C0D201CD01CDB7DEB7E2E10C94CF
:10037000130CA0E2B0E0EFEBF1E00C94030C698306
:100380007A838B839C832D833E834F835887E9E058
:10039000EE2EF12CEC0EFD1ECE010196B7010E944F
:1003A000CA048E010F5E1F4FCE010596B8010E9450
:1003B000CA048A8991E089278A8BC701B801AE01F6
:1003C000475E5F4F0E946D000E94F503A096E6E035
:1003D0000C941F0CA0E2B0E0E0EFF1E00C94030CF1
:1003E00069837A838B839C832D833E834F835887D5
:1003F000F9E0EF2EF12CEC0EFD1ECE010196B701B7
:100400000E94CA048E010F5E1F4FCE010596B801EF
:100410000E94CA04C701B801AE01475E5F4F0E9447
:100420006D000E94F503A096E6E00C941F0CA0E27C
:10043000B0E0EDE1F2E00C94F70B69837A838B83F3
:100440009C832D833E834F835887CE010196BE0146
:10045000675F7F4F0E94CA04CE010596BE016F5EA2
:100460007F4F0E94CA049985923088F08989823032
:10047000C8F0943019F4823051F404C0843029F467
:10048000923081F480E690E0C6C0923049F420E0DA
:100490009A858A89981321E02A87CE010996BBC0E4
:1004A000823049F420E09A858A89981321E02A8BCA
:1004B000CE014196B0C02D843E844F8458886D880B
:1004C0007E888F88988CEE24FF248701AA24BB2481
:1004D000650140E050E060E070E0E0E0F0E0C10184
:1004E00081709070892BE9F0E60CF71C081D191D2E
:1004F0009A01AB012A0D3B1D4C1D5D1D80E090E073
:10050000A0E0B0E0E614F7040805190520F481E046
:1005100090E0A0E0B0E0BA01A901480F591F6A1F9E
:100520007B1FAA0CBB1CCC1CDD1C97FE08C081E005
:1005300090E0A0E0B0E0A82AB92ACA2ADB2A3196C6
:10054000E032F10549F0660C771C881C991C569422
:10055000479437942794C3CFFA85EA892B893C893D
:100560008B859C85280F391F2E5F3F4F17C0CA010E
:1005700081709070892B61F016950795F794E79438
:1005800080E090E0A0E0B0E8E82AF92A0A2B1B2BD3
:1005900076956795579547952F5F3F4F77FDE7CF46
:1005A0000CC0440F551F661F771F17FD4160EE0CEE
:1005B000FF1C001F111F21503040403090E05907B0
:1005C00090E0690790E4790760F32B8F3C8FDB01A3
:1005D000CA018F779070A070B07080349105A1052A
:1005E000B10561F447FD0AC0E114F10401051105EC
:1005F00029F0405C5F4F6F4F7F4F40781A8EFE1797
:1006000011F081E08A8F4D8F5E8F6F8F78A383E02A
:10061000898FCE0149960E94F503A096E2E10C94E1
:10062000130CA8E1B0E0E7E1F3E00C94030C69835C
:100630007A838B839C832D833E834F83588789E005
:10064000E82EF12CEC0EFD1ECE010196B7010E94A2
:10065000CA048E010F5E1F4FCE010596B8010E949D
:10066000CA048985823040F08989823028F0C70128
:10067000B8010E94420501C08FEF6896E6E00C9435
:100680001F0CA8E1B0E0E7E4F3E00C94030C6983ED
:100690007A838B839C832D833E834F83588789E0A5
:1006A000E82EF12CEC0EFD1ECE010196B7010E9442
:1006B000CA048E010F5E1F4FCE010596B8010E943D
:1006C000CA048985823040F08989823028F0C701C8
:1006D000B8010E94420501C08FEF6896E6E00C94D5
:1006E0001F0CA8E1B0E0E7E7F3E00C94030C69838A
:1006F0007A838B839C832D833E834F83588789E045
:10070000E82EF12CEC0EFD1ECE010196B7010E94E1
:10071000CA048E010F5E1F4FCE010596B8010E94DC
:10072000CA048985823040F08989823028F0C70167
:10073000B8010E94420501C081E06896E6E00C9491
:100740001F0CACE0B0E0E7EAF3E00C94070C69831F
:100750007A838B839C83CE010196BE016B5F7F4FB2
:100760000E94CA048D81823061F1823050F1843060
:1007700021F48E81882351F12EC02F81388537FDD9
:1007800020C06E812F3131051CF06623F9F023C0A3
:100790008EE190E0821B930B29853A854B855C8521
:1007A00004C056954795379527958A95D2F76623C5
:1007B000B1F050954095309521953F4F4F4F5F4F89
:1007C0000EC020E030E040E050E009C02FEF3FEFE6
:1007D0004FEF5FE704C020E030E040E050E8B901AF
:1007E000CA012C96E2E00C94230CDF92EF92FF9268
:1007F0000F931F93FC01E480F58006811781D1805F
:100800008081823048F480E090E0A0E1B0E0E82A06
:10081000F92A0A2B1B2BA5C0843009F49FC0823013
:1008200021F4EE24FF24870105C0E114F104010541
:10083000110519F4E0E0F0E096C0628173819FEF4A
:10084000623879070CF05BC022E83FEF261B370BBC
:100850002A3131052CF020E030E040E050E02AC0A1
:10086000B801A701022E04C0769567955795479564
:100870000A94D2F781E090E0A0E0B0E004C0880FD5
:10088000991FAA1FBB1F2A95D2F70197A109B10989
:100890008E219F21A023B1230097A105B10521F04E
:1008A00081E090E0A0E0B0E09A01AB01282B392B69
:1008B0004A2B5B2BDA01C9018F779070A070B07062
:1008C00080349105A105B10539F427FF09C0205CEA
:1008D0003F4F4F4F5F4F04C0215C3F4F4F4F5F4F23
:1008E000E0E0F0E02030A0E03A07A0E04A07A0E412
:1008F0005A0710F0E1E0F0E079018A0127C0603882
:10090000710564F5FB01E158FF4FD801C7018F77EE
:100910009070A070B07080349105A105B10539F4D4
:10092000E7FE0DC080E490E0A0E0B0E004C08FE3FB
:1009300090E0A0E0B0E0E80EF91E0A1F1B1F17FFB1
:1009400005C016950795F794E794319687E01695BC
:100950000795F794E7948A95D1F705C0EE24FF2414
:100960008701EFEFF0E06E2F679566276795902F70
:100970009F77D794DD24D7948E2F8695492F462BC9
:10098000582F5D29B701CA011F910F91FF90EF9079
:10099000DF900895FC01DB01408151812281622FAB
:1009A0006F7770E0221F2227221F9381892F880FE3
:1009B000822B282F30E0991F9927991F11969C931D
:1009C000119721153105A9F54115510561057105ED
:1009D00011F482E037C082E89FEF13969C938E93C8
:1009E00012979A01AB0167E0220F331F441F551F76
:1009F0006A95D1F783E08C930DC0220F331F441FFB
:100A0000551F12968D919C911397019713969C9365
:100A10008E931297203080E0380780E0480780E40A
:100A2000580758F314962D933D934D935C93179765
:100A300008952F3F310579F4411551056105710580
:100A400019F484E08C93089564FF03C081E08C93D3
:100A500012C01C9210C02F57304013963C932E9317
:100A6000129783E08C9387E0440F551F661F771F12
:100A70008A95D1F7706414964D935D936D937C9332
:100A8000179708951F93DC01FB019C91923008F4A5
:100A900047C08081823008F443C0943051F41196ED
:100AA0001C91843099F58181682F70E0611B710978
:100AB0003FC0843021F0923031F48230B9F181812D
:100AC000882389F12DC011961C9111978230F1F085
:100AD00081811817D9F412962D913C911397828138
:100AE00093818217930794F028173907BCF0149666
:100AF0008D919D910D90BC91A02D248135814681D1
:100B00005781281739074A075B0718F4112341F06A
:100B10000AC082179307A407B50740F4112319F000
:100B200061E070E005C06FEF7FEF02C060E070E051
:100B3000CB011F910895DF93CF93CDB7DEB7EAE3E2
:100B4000F0E01082E7E3F0E01082E4E3F0E080E21E
:100B50008083E1E3F0E01082EBE3F0E01082E8E371
:100B6000F0E081E08083E5E3F0E01082E2E3F0E092
:100B700084E08083CF91DF910895DF93CF93CDB749
:100B8000DEB72E970FB6F894DEBF0FBECDBF8A83B7
:100B90006B834C8381E089838B81883008F068C146
:100BA0008A81282F30E03E872D878D859E85813074
:100BB000910509F468C02D853E85223031052CF45D
:100BC0008D859E85009771F051C12D853E8522301F
:100BD000310509F4A9C08D859E858330910509F4FE
:100BE000F4C044C18C81282F30E03C872B878B8553
:100BF0009C858130910589F12B853C85223031051A
:100C000029F08B859C85009799F03BC0ABE3B0E061
:100C1000EBE3F0E08081482F8B81282F30E081E0EA
:100C200090E002C0880F991F2A95E2F7842B8C93DD
:100C3000AAE3B0E0EAE3F0E08081482F8B81282F1F
:100C400030E081E090E0022E02C0880F991F0A94E4
:100C5000E2F7809584238C930CC1AAE3B0E0EAE329
:100C6000F0E08081482F8B81282F30E081E090E0F8
:100C7000022E02C0880F991F0A94E2F7842B8C93EE
:100C8000F8C01982F6C08C81282F30E03A87298776
:100C900089859A858130910589F129853A852230A7
:100CA000310529F089859A85009799F03BC0A8E322
:100CB000B0E0E8E3F0E08081482F8B81282F30E01E
:100CC00081E090E002C0880F991F2A95E2F7842BFB
:100CD0008C93A7E3B0E0E7E3F0E08081482F8B81BD
:100CE000282F30E081E090E0022E02C0880F991F8B
:100CF0000A94E2F7809584238C93BBC0A7E3B0E00D
:100D0000E7E3F0E08081482F8B81282F30E081E0FD
:100D100090E0022E02C0880F991F0A94E2F7842BFC
:100D20008C93A7C01982A5C08C81282F30E038870A
:100D30002F838F8198858130910589F12F813885A6
:100D40002230310529F08F819885009799F03BC0BA
:100D5000A5E3B0E0E5E3F0E08081482F8B81282F08
:100D600030E081E090E002C0880F991F2A95E2F7F9
:100D7000842B8C93A4E3B0E0E4E3F0E08081482F7F
:100D80008B81282F30E081E090E0022E02C0880F96
:100D9000991F0A94E2F7809584238C936AC0A4E398
:100DA000B0E0E4E3F0E08081482F8B81282F30E031
:100DB00081E090E0022E02C0880F991F0A94E2F7AA
:100DC000842B8C9356C0198254C08C81282F30E01C
:100DD0003E832D838D819E818130910589F12D8106
:100DE0003E812230310529F08D819E81009799F056
:100DF0003BC0A2E3B0E0E2E3F0E08081482F8B81CA
:100E0000282F30E081E090E002C0880F991F2A95DA
:100E1000E2F7842B8C93A1E3B0E0E1E3F0E0808182
:100E2000482F8B81282F30E081E090E0022E02C015
:100E3000880F991F0A94E2F7809584238C9319C038
:100E4000A1E3B0E0E1E3F0E08081482F8B81282F1F
:100E500030E081E090E0022E02C0880F991F0A94D2
:100E6000E2F7842B8C9305C0198203C0198201C05C
:100E7000198289812E960FB6F894DEBF0FBECDBFC2
:100E8000CF91DF910895DF93CF93CDB7DEB72D9744
:100E90000FB6F894DEBF0FBECDBF8A836B8381E0AF
:100EA00089838A81282F30E03D872C878C859D851A
:100EB00081309105D1F12C853D85223031052CF40E
:100EC0008C859D85009771F099C02C853D852230D9
:100ED000310509F44DC08C859D858330910509F459
:100EE0006AC08CC08B81282F30E03B872A878A8597
:100EF0009B858130910591F02A853B852230310513
:100F000029F08A859B85009729F00DC0EBE3F0E07E
:100F10008FEF8083EAE3F0E0108271C0EAE3F0E053
:100F20008FEF80836CC019826AC08B81282F30E0DC
:100F300039872887888599858130910591F02885A2
:100F400039852230310529F088859985009729F067
:100F50000DC0E8E3F0E08FEF8083E7E3F0E010827C
:100F60004EC0E7E3F0E08FEF808349C0198247C0AD
:100F70008B81282F30E03F832E838E819F818130AB
:100F8000910591F02E813F812230310529F08E812B
:100F90009F81009729F00DC0E5E3F0E08FEF80839B
:100FA000E4E3F0E010822BC0E4E3F0E08FEF808315
:100FB00026C0198224C08B81282F30E03D832C83EA
:100FC0008C819D818130910591F02C813D81223071
:100FD000310529F08C819D81009729F00DC0E2E355
:100FE000F0E08FEF8083E1E3F0E0108208C0E1E3FE
:100FF000F0E08FEF808303C0198201C019828981DC
:101000002D960FB6F894DEBF0FBECDBFCF91DF9106
:101010000895DF93CF93CDB7DEB72E970FB6F89430
:10102000DEBF0FBECDBF8A836B834C8381E0898393
:101030008B81883008F00AC18C81813021F08C814D
:10104000882309F003C18A81282F30E03E872D874D
:101050008D859E858130910509F44FC02D853E8593
:10106000223031052CF48D859E85009771F0ECC0FF
:101070002D853E852230310509F477C08D859E850A
:101080008330910509F4A9C0DFC08C81282F30E09E
:101090003C872B878B859C850097D1F02B853C85E1
:1010A0002130310509F0D3C0ABE3B0E0EBE3F0E071
:1010B0008081482F8B81282F30E081E090E0022E44
:1010C00002C0880F991F0A94E2F7842B8C93BFC04B
:1010D000ABE3B0E0EBE3F0E08081482F8B81282F79
:1010E00030E081E090E0022E02C0880F991F0A9440
:1010F000E2F7809584238C93AAC08C81282F30E05E
:101100003A87298789859A850097D1F029853A857C
:101110002130310509F09BC0A8E3B0E0E8E3F0E03E
:101120008081482F8B81282F30E081E090E0022ED3
:1011300002C0880F991F0A94E2F7842B8C9387C012
:10114000A8E3B0E0E8E3F0E08081482F8B81282F0E
:1011500030E081E090E0022E02C0880F991F0A94CF
:10116000E2F7809584238C9372C08C81282F30E025
:1011700038872F838F8198850097D1F02F8138850C
:101180002130310509F063C0A5E3B0E0E5E3F0E00C
:101190008081482F8B81282F30E081E090E0022E63
:1011A00002C0880F991F0A94E2F7842B8C934FC0DA
:1011B000A5E3B0E0E5E3F0E08081482F8B81282FA4
:1011C00030E081E090E0022E02C0880F991F0A945F
:1011D000E2F7809584238C933AC08C81282F30E0ED
:1011E0003E832D838D819E810097C9F02D813E81A4
:1011F0002130310561F5A2E3B0E0E2E3F0E0808167
:10120000482F8B81282F30E081E090E0022E02C031
:10121000880F991F0A94E2F7842B8C9318C0A2E3DD
:10122000B0E0E2E3F0E08081482F8B81282F30E0AE
:1012300081E090E0022E02C0880F991F0A94E2F725
:10124000809584238C9303C0198201C019828981FF
:101250002E960FB6F894DEBF0FBECDBFCF91DF91B3
:101260000895DF93CF93CDB7DEB727970FB6F894E5
:10127000DEBF0FBECDBF8A836B835D834C8381E06D
:1012800089838B81883008F07AC08C819D8100979A
:1012900009F475C081E089838A81282F30E03F837B
:1012A0002E834E815F814130510559F18E819F819E
:1012B0008230910534F42E813F812115310569F08A
:1012C0005CC04E815F814230510579F18E819F81F2
:1012D0008330910509F43DC050C0E9E3F0E080811E
:1012E000282F30E08B81882F90E0A90102C055950E
:1012F00047958A95E2F7CA018170EC81FD81808370
:1013000040C0E6E3F0E08081282F30E08B81882F19
:1013100090E0A90102C0559547958A95E2F7CA0168
:101320008170EC81FD8180832CC0E3E3F0E080815B
:10133000282F30E08B81882F90E0A90102C05595BD
:1013400047958A95E2F7CA018170EC81FD8180831F
:1013500018C0E0E3F0E08081282F30E08B81882FF7
:1013600090E0A90102C0559547958A95E2F7CA0118
:101370008170EC81FD81808304C0198202C081E00C
:101380008983898127960FB6F894DEBF0FBECDBF43
:10139000CF91DF910895DF93CF9300D000D000D09C
:1013A000CDB7DEB78A836B8381E089838B818830F8
:1013B00008F070C08A81282F30E03D832C838C8117
:1013C0009D818130910549F12C813D81223031058B
:1013D0002CF48C819D81009761F05BC02C813D8154
:1013E0002230310571F18C819D8183309105E9F1C5
:1013F00050C0ABE3B0E0EBE3F0E08081482F8B819D
:10140000282F30E081E090E0022E02C0880F991F63
:101410000A94E2F784278C933DC0A8E3B0E0E8E3A8
:10142000F0E08081482F8B81282F30E081E090E030
:10143000022E02C0880F991F0A94E2F784278C932A
:1014400029C0A5E3B0E0E5E3F0E08081482F8B817F
:10145000282F30E081E090E0022E02C0880F991F13
:101460000A94E2F784278C9315C0A2E3B0E0E2E38C
:10147000F0E08081482F8B81282F30E081E090E0E0
:10148000022E02C0880F991F0A94E2F784278C93DA
:1014900001C0198226960FB6F894DEBF0FBECDBFED
:1014A000CF91DF910895DF93CF9300D000D00F92BA
:1014B000CDB7DEB78A836B8381E089838A81282F49
:1014C00030E03D832C838C819D8181309105D1F06A
:1014D0002C813D81223031052CF48C819D81009737
:1014E00061F01FC02C813D812230310581F08C815B
:1014F0009D818330910581F014C0EBE3F0E08B8196
:10150000808310C0E8E3F0E08B8180830BC0E5E3CB
:10151000F0E08B81808306C0E2E3F0E08B81808382
:1015200001C0198289810F900F900F900F900F903A
:10153000CF91DF910895DF93CF9300D000D000D0FA
:10154000CDB7DEB78A837C836B8381E089838B810F
:101550009C81009709F43FC081E089838A81282F0C
:1015600030E03E832D838D819E8181309105E1F0B5
:101570002D813E81223031052CF48D819E81009792
:1015800061F027C02D813E8122303105A1F08D818F
:101590009E8183309105B1F01CC0E9E3F0E08081C9
:1015A000EB81FC81808319C0E6E3F0E08081EB8170
:1015B000FC81808312C0E3E3F0E08081EB81FC8159
:1015C00080830BC0E0E3F0E08081EB81FC818083CD
:1015D00004C0198202C081E08983898126960FB6F2
:1015E000F894DEBF0FBECDBFCF91DF910895DF939A
:1015F000CF93CDB7DEB76D970FB6F894DEBF0FBEB1
:10160000CDBF81E08D8F82E060E041E00E94BD05AA
:1016100082E060E041E00E94090880E090E0AAEFEB
:10162000B4E4898F9A8FAB8FBC8F698D7A8D8B8D47
:101630009C8D20E030E04AEF54E40E941702DC0168
:10164000CB018D8B9E8BAF8BB88F6D897E898F89F7
:10165000988D20E030E040E85FE30E94710388232A
:101660002CF481E090E09C8B8B8B3FC06D897E8950
:101670008F89988D20E03FEF4FE757E40E941103D8
:1016800018164CF5698D7A8D8B8D9C8D20E030E09D
:1016900040E251E40E941702DC01CB01BC01CD0104
:1016A0000E944100DC01CB019C8B8B8B0FC088EC2E
:1016B00090E09A8B898B89899A890197F1F79A8BA7
:1016C000898B8B899C8901979C8B8B8B8B899C89BF
:1016D000009769F714C06D897E898F89988D0E9463
:1016E0004100DC01CB019C8B8B8B8B899C89988B77
:1016F0008F878F8598890197F1F7988B8F8782E084
:1017000060E040E00E94090880E090E0AAEFB4E4C5
:101710008B879C87AD87BE876B857C858D859E85F5
:1017200020E030E04AEF54E40E941702DC01CB01D4
:101730008F839887A987BA876F81788589859A85ED
:1017400020E030E040E85FE30E94710388232CF43E
:1017500081E090E09E838D833FC06F81788589858D
:101760009A8520E03FEF4FE757E40E9411031816D7
:101770004CF56B857C858D859E8520E030E040E2D0
:1017800051E40E941702DC01CB01BC01CD010E9493
:101790004100DC01CB019E838D830FC088EC90E07B
:1017A0009C838B838B819C810197F1F79C838B8336
:1017B0008D819E8101979E838D838D819E8100976F
:1017C00069F726CF6F81788589859A850E944100C7
:1017D000DC01CB019E838D838D819E819A838983D9
:1017E00089819A810197F1F79A83898311CF2F928A
:1017F0003F924F925F926F927F928F929F92AF92A1
:10180000BF92CF92DF92EF92FF920F931F93CF93ED
:10181000DF93CDB7DEB7CA1BDB0B0FB6F894DEBF84
:101820000FBECDBF09942A88398848885F846E84AA
:101830007D848C849B84AA84B984C884DF80EE80F4
:10184000FD800C811B81AA81B981CE0FD11D0FB6FD
:10185000F894DEBF0FBECDBFED010895F894FFCF21
:08186000000000000000000080
:00000001FF
